{
  "_format": "hh-sol-artifact-1",
  "contractName": "BonerToken",
  "sourceName": "contracts/BonerToken.sol",
  "abi": [
    {
      "inputs": [
        {
          "internalType": "address",
          "name": "initialOwner",
          "type": "address"
        },
        {
          "internalType": "uint256",
          "name": "initialSupply",
          "type": "uint256"
        }
      ],
      "stateMutability": "nonpayable",
      "type": "constructor"
    },
    {
      "inputs": [
        {
          "internalType": "address",
          "name": "spender",
          "type": "address"
        },
        {
          "internalType": "uint256",
          "name": "allowance",
          "type": "uint256"
        },
        {
          "internalType": "uint256",
          "name": "needed",
          "type": "uint256"
        }
      ],
      "name": "ERC20InsufficientAllowance",
      "type": "error"
    },
    {
      "inputs": [
        {
          "internalType": "address",
          "name": "sender",
          "type": "address"
        },
        {
          "internalType": "uint256",
          "name": "balance",
          "type": "uint256"
        },
        {
          "internalType": "uint256",
          "name": "needed",
          "type": "uint256"
        }
      ],
      "name": "ERC20InsufficientBalance",
      "type": "error"
    },
    {
      "inputs": [
        {
          "internalType": "address",
          "name": "approver",
          "type": "address"
        }
      ],
      "name": "ERC20InvalidApprover",
      "type": "error"
    },
    {
      "inputs": [
        {
          "internalType": "address",
          "name": "receiver",
          "type": "address"
        }
      ],
      "name": "ERC20InvalidReceiver",
      "type": "error"
    },
    {
      "inputs": [
        {
          "internalType": "address",
          "name": "sender",
          "type": "address"
        }
      ],
      "name": "ERC20InvalidSender",
      "type": "error"
    },
    {
      "inputs": [
        {
          "internalType": "address",
          "name": "spender",
          "type": "address"
        }
      ],
      "name": "ERC20InvalidSpender",
      "type": "error"
    },
    {
      "inputs": [],
      "name": "EnforcedPause",
      "type": "error"
    },
    {
      "inputs": [],
      "name": "ExpectedPause",
      "type": "error"
    },
    {
      "inputs": [
        {
          "internalType": "address",
          "name": "owner",
          "type": "address"
        }
      ],
      "name": "OwnableInvalidOwner",
      "type": "error"
    },
    {
      "inputs": [
        {
          "internalType": "address",
          "name": "account",
          "type": "address"
        }
      ],
      "name": "OwnableUnauthorizedAccount",
      "type": "error"
    },
    {
      "anonymous": false,
      "inputs": [
        {
          "indexed": true,
          "internalType": "address",
          "name": "owner",
          "type": "address"
        },
        {
          "indexed": true,
          "internalType": "address",
          "name": "spender",
          "type": "address"
        },
        {
          "indexed": false,
          "internalType": "uint256",
          "name": "value",
          "type": "uint256"
        }
      ],
      "name": "Approval",
      "type": "event"
    },
    {
      "anonymous": false,
      "inputs": [
        {
          "indexed": true,
          "internalType": "address",
          "name": "previousOwner",
          "type": "address"
        },
        {
          "indexed": true,
          "internalType": "address",
          "name": "newOwner",
          "type": "address"
        }
      ],
      "name": "OwnershipTransferred",
      "type": "event"
    },
    {
      "anonymous": false,
      "inputs": [
        {
          "indexed": false,
          "internalType": "address",
          "name": "account",
          "type": "address"
        }
      ],
      "name": "Paused",
      "type": "event"
    },
    {
      "anonymous": false,
      "inputs": [
        {
          "indexed": true,
          "internalType": "address",
          "name": "from",
          "type": "address"
        },
        {
          "indexed": true,
          "internalType": "address",
          "name": "to",
          "type": "address"
        },
        {
          "indexed": false,
          "internalType": "uint256",
          "name": "value",
          "type": "uint256"
        }
      ],
      "name": "Transfer",
      "type": "event"
    },
    {
      "anonymous": false,
      "inputs": [
        {
          "indexed": false,
          "internalType": "address",
          "name": "account",
          "type": "address"
        }
      ],
      "name": "Unpaused",
      "type": "event"
    },
    {
      "inputs": [
        {
          "internalType": "address",
          "name": "owner",
          "type": "address"
        },
        {
          "internalType": "address",
          "name": "spender",
          "type": "address"
        }
      ],
      "name": "allowance",
      "outputs": [
        {
          "internalType": "uint256",
          "name": "",
          "type": "uint256"
        }
      ],
      "stateMutability": "view",
      "type": "function"
    },
    {
      "inputs": [
        {
          "internalType": "address",
          "name": "spender",
          "type": "address"
        },
        {
          "internalType": "uint256",
          "name": "value",
          "type": "uint256"
        }
      ],
      "name": "approve",
      "outputs": [
        {
          "internalType": "bool",
          "name": "",
          "type": "bool"
        }
      ],
      "stateMutability": "nonpayable",
      "type": "function"
    },
    {
      "inputs": [
        {
          "internalType": "address",
          "name": "account",
          "type": "address"
        }
      ],
      "name": "balanceOf",
      "outputs": [
        {
          "internalType": "uint256",
          "name": "",
          "type": "uint256"
        }
      ],
      "stateMutability": "view",
      "type": "function"
    },
    {
      "inputs": [
        {
          "internalType": "uint256",
          "name": "value",
          "type": "uint256"
        }
      ],
      "name": "burn",
      "outputs": [],
      "stateMutability": "nonpayable",
      "type": "function"
    },
    {
      "inputs": [
        {
          "internalType": "address",
          "name": "account",
          "type": "address"
        },
        {
          "internalType": "uint256",
          "name": "value",
          "type": "uint256"
        }
      ],
      "name": "burnFrom",
      "outputs": [],
      "stateMutability": "nonpayable",
      "type": "function"
    },
    {
      "inputs": [],
      "name": "decimals",
      "outputs": [
        {
          "internalType": "uint8",
          "name": "",
          "type": "uint8"
        }
      ],
      "stateMutability": "view",
      "type": "function"
    },
    {
      "inputs": [
        {
          "internalType": "address",
          "name": "to",
          "type": "address"
        },
        {
          "internalType": "uint256",
          "name": "amount",
          "type": "uint256"
        }
      ],
      "name": "mint",
      "outputs": [],
      "stateMutability": "nonpayable",
      "type": "function"
    },
    {
      "inputs": [],
      "name": "name",
      "outputs": [
        {
          "internalType": "string",
          "name": "",
          "type": "string"
        }
      ],
      "stateMutability": "view",
      "type": "function"
    },
    {
      "inputs": [],
      "name": "owner",
      "outputs": [
        {
          "internalType": "address",
          "name": "",
          "type": "address"
        }
      ],
      "stateMutability": "view",
      "type": "function"
    },
    {
      "inputs": [],
      "name": "pause",
      "outputs": [],
      "stateMutability": "nonpayable",
      "type": "function"
    },
    {
      "inputs": [],
      "name": "paused",
      "outputs": [
        {
          "internalType": "bool",
          "name": "",
          "type": "bool"
        }
      ],
      "stateMutability": "view",
      "type": "function"
    },
    {
      "inputs": [],
      "name": "renounceOwnership",
      "outputs": [],
      "stateMutability": "nonpayable",
      "type": "function"
    },
    {
      "inputs": [],
      "name": "symbol",
      "outputs": [
        {
          "internalType": "string",
          "name": "",
          "type": "string"
        }
      ],
      "stateMutability": "view",
      "type": "function"
    },
    {
      "inputs": [],
      "name": "totalSupply",
      "outputs": [
        {
          "internalType": "uint256",
          "name": "",
          "type": "uint256"
        }
      ],
      "stateMutability": "view",
      "type": "function"
    },
    {
      "inputs": [
        {
          "internalType": "address",
          "name": "to",
          "type": "address"
        },
        {
          "internalType": "uint256",
          "name": "value",
          "type": "uint256"
        }
      ],
      "name": "transfer",
      "outputs": [
        {
          "internalType": "bool",
          "name": "",
          "type": "bool"
        }
      ],
      "stateMutability": "nonpayable",
      "type": "function"
    },
    {
      "inputs": [
        {
          "internalType": "address",
          "name": "from",
          "type": "address"
        },
        {
          "internalType": "address",
          "name": "to",
          "type": "address"
        },
        {
          "internalType": "uint256",
          "name": "value",
          "type": "uint256"
        }
      ],
      "name": "transferFrom",
      "outputs": [
        {
          "internalType": "bool",
          "name": "",
          "type": "bool"
        }
      ],
      "stateMutability": "nonpayable",
      "type": "function"
    },
    {
      "inputs": [
        {
          "internalType": "address",
          "name": "newOwner",
          "type": "address"
        }
      ],
      "name": "transferOwnership",
      "outputs": [],
      "stateMutability": "nonpayable",
      "type": "function"
    },
    {
      "inputs": [],
      "name": "unpause",
      "outputs": [],
      "stateMutability": "nonpayable",
      "type": "function"
    }
  ],
  "bytecode": "0x608060405234801561001057600080fd5b506040516121263803806121268339818101604052810190610032919061062b565b816040518060400160405280600a81526020017f426f6e6572546f6b656e000000000000000000000000000000000000000000008152506040518060400160405280600581526020017f424f4e455200000000000000000000000000000000000000000000000000000081525081600390816100ae91906108b1565b5080600490816100be91906108b1565b505050600073ffffffffffffffffffffffffffffffffffffffff168173ffffffffffffffffffffffffffffffffffffffff16036101335760006040517f1e4fbdf700000000000000000000000000000000000000000000000000000000815260040161012a9190610992565b60405180910390fd5b6101428161017e60201b60201c565b506101773361015561024460201b60201c565b600a6101619190610b1c565b8361016c9190610b67565b61024d60201b60201c565b5050610c3e565b6000600560019054906101000a900473ffffffffffffffffffffffffffffffffffffffff16905081600560016101000a81548173ffffffffffffffffffffffffffffffffffffffff021916908373ffffffffffffffffffffffffffffffffffffffff1602179055508173ffffffffffffffffffffffffffffffffffffffff168173ffffffffffffffffffffffffffffffffffffffff167f8be0079c531659141344cd1fd0a4f28419497f9722a3daafe3b4186f6b6457e060405160405180910390a35050565b60006012905090565b600073ffffffffffffffffffffffffffffffffffffffff168273ffffffffffffffffffffffffffffffffffffffff16036102bf5760006040517fec442f050000000000000000000000000000000000000000000000000000000081526004016102b69190610992565b60405180910390fd5b6102d1600083836102d560201b60201c565b5050565b6102e68383836102eb60201b60201c565b505050565b6102f961030f60201b60201c565b61030a83838361035660201b60201c565b505050565b61031d61057b60201b60201c565b15610354576040517fd93c066500000000000000000000000000000000000000000000000000000000815260040160405180910390fd5b565b600073ffffffffffffffffffffffffffffffffffffffff168373ffffffffffffffffffffffffffffffffffffffff16036103a857806002600082825461039c9190610ba9565b9250508190555061047b565b60008060008573ffffffffffffffffffffffffffffffffffffffff1673ffffffffffffffffffffffffffffffffffffffff16815260200190815260200160002054905081811015610434578381836040517fe450d38c00000000000000000000000000000000000000000000000000000000815260040161042b93929190610bec565b60405180910390fd5b8181036000808673ffffffffffffffffffffffffffffffffffffffff1673ffffffffffffffffffffffffffffffffffffffff16815260200190815260200160002081905550505b600073ffffffffffffffffffffffffffffffffffffffff168273ffffffffffffffffffffffffffffffffffffffff16036104c45780600260008282540392505081905550610511565b806000808473ffffffffffffffffffffffffffffffffffffffff1673ffffffffffffffffffffffffffffffffffffffff168152602001908152602001600020600082825401925050819055505b8173ffffffffffffffffffffffffffffffffffffffff168373ffffffffffffffffffffffffffffffffffffffff167fddf252ad1be2c89b69c2b068fc378daa952ba7f163c4a11628f55a4df523b3ef8360405161056e9190610c23565b60405180910390a3505050565b6000600560009054906101000a900460ff16905090565b600080fd5b600073ffffffffffffffffffffffffffffffffffffffff82169050919050565b60006105c282610597565b9050919050565b6105d2816105b7565b81146105dd57600080fd5b50565b6000815190506105ef816105c9565b92915050565b6000819050919050565b610608816105f5565b811461061357600080fd5b50565b600081519050610625816105ff565b92915050565b6000806040838503121561064257610641610592565b5b6000610650858286016105e0565b925050602061066185828601610616565b9150509250929050565b600081519050919050565b7f4e487b7100000000000000000000000000000000000000000000000000000000600052604160045260246000fd5b7f4e487b7100000000000000000000000000000000000000000000000000000000600052602260045260246000fd5b600060028204905060018216806106ec57607f821691505b6020821081036106ff576106fe6106a5565b5b50919050565b60008190508160005260206000209050919050565b60006020601f8301049050919050565b600082821b905092915050565b6000600883026107677fffffffffffffffffffffffffffffffffffffffffffffffffffffffffffffffff8261072a565b610771868361072a565b95508019841693508086168417925050509392505050565b6000819050919050565b60006107ae6107a96107a4846105f5565b610789565b6105f5565b9050919050565b6000819050919050565b6107c883610793565b6107dc6107d4826107b5565b848454610737565b825550505050565b600090565b6107f16107e4565b6107fc8184846107bf565b505050565b5b81811015610820576108156000826107e9565b600181019050610802565b5050565b601f8211156108655761083681610705565b61083f8461071a565b8101602085101561084e578190505b61086261085a8561071a565b830182610801565b50505b505050565b600082821c905092915050565b60006108886000198460080261086a565b1980831691505092915050565b60006108a18383610877565b9150826002028217905092915050565b6108ba8261066b565b67ffffffffffffffff8111156108d3576108d2610676565b5b6108dd82546106d4565b6108e8828285610824565b600060209050601f83116001811461091b5760008415610909578287015190505b6109138582610895565b86555061097b565b601f19841661092986610705565b60005b828110156109515784890151825560018201915060208501945060208101905061092c565b8683101561096e578489015161096a601f891682610877565b8355505b6001600288020188555050505b505050505050565b61098c816105b7565b82525050565b60006020820190506109a76000830184610983565b92915050565b7f4e487b7100000000000000000000000000000000000000000000000000000000600052601160045260246000fd5b60008160011c9050919050565b6000808291508390505b6001851115610a3357808604811115610a0f57610a0e6109ad565b5b6001851615610a1e5780820291505b8081029050610a2c856109dc565b94506109f3565b94509492505050565b600082610a4c5760019050610b08565b81610a5a5760009050610b08565b8160018114610a705760028114610a7a57610aa9565b6001915050610b08565b60ff841115610a8c57610a8b6109ad565b5b8360020a915084821115610aa357610aa26109ad565b5b50610b08565b5060208310610133831016604e8410600b8410161715610ade5782820a905083811115610ad957610ad86109ad565b5b610b08565b610aeb84848460016109e9565b92509050818404811115610b0257610b016109ad565b5b81810290505b9392505050565b600060ff82169050919050565b6000610b27826105f5565b9150610b3283610b0f565b9250610b5f7fffffffffffffffffffffffffffffffffffffffffffffffffffffffffffffffff8484610a3c565b905092915050565b6000610b72826105f5565b9150610b7d836105f5565b9250828202610b8b816105f5565b91508282048414831517610ba257610ba16109ad565b5b5092915050565b6000610bb4826105f5565b9150610bbf836105f5565b9250828201905080821115610bd757610bd66109ad565b5b92915050565b610be6816105f5565b82525050565b6000606082019050610c016000830186610983565b610c0e6020830185610bdd565b610c1b6040830184610bdd565b949350505050565b6000602082019050610c386000830184610bdd565b92915050565b6114d980610c4d6000396000f3fe608060405234801561001057600080fd5b50600436106101165760003560e01c806370a08231116100a25780638da5cb5b116100715780638da5cb5b1461029557806395d89b41146102b3578063a9059cbb146102d1578063dd62ed3e14610301578063f2fde38b1461033157610116565b806370a0823114610235578063715018a61461026557806379cc67901461026f5780638456cb591461028b57610116565b8063313ce567116100e9578063313ce567146101b75780633f4ba83a146101d557806340c10f19146101df57806342966c68146101fb5780635c975abb1461021757610116565b806306fdde031461011b578063095ea7b31461013957806318160ddd1461016957806323b872dd14610187575b600080fd5b61012361034d565b6040516101309190611100565b60405180910390f35b610153600480360381019061014e91906111bb565b6103df565b6040516101609190611216565b60405180910390f35b610171610402565b60405161017e9190611240565b60405180910390f35b6101a1600480360381019061019c919061125b565b61040c565b6040516101ae9190611216565b60405180910390f35b6101bf61043b565b6040516101cc91906112ca565b60405180910390f35b6101dd610444565b005b6101f960048036038101906101f491906111bb565b610456565b005b610215600480360381019061021091906112e5565b61046c565b005b61021f610480565b60405161022c9190611216565b60405180910390f35b61024f600480360381019061024a9190611312565b610497565b60405161025c9190611240565b60405180910390f35b61026d6104df565b005b610289600480360381019061028491906111bb565b6104f3565b005b610293610513565b005b61029d610525565b6040516102aa919061134e565b60405180910390f35b6102bb61054f565b6040516102c89190611100565b60405180910390f35b6102eb60048036038101906102e691906111bb565b6105e1565b6040516102f89190611216565b60405180910390f35b61031b60048036038101906103169190611369565b610604565b6040516103289190611240565b60405180910390f35b61034b60048036038101906103469190611312565b61068b565b005b60606003805461035c906113d8565b80601f0160208091040260200160405190810160405280929190818152602001828054610388906113d8565b80156103d55780601f106103aa576101008083540402835291602001916103d5565b820191906000526020600020905b8154815290600101906020018083116103b857829003601f168201915b5050505050905090565b6000806103ea610711565b90506103f7818585610719565b600191505092915050565b6000600254905090565b600080610417610711565b905061042485828561072b565b61042f8585856107c0565b60019150509392505050565b60006012905090565b61044c6108b4565b61045461093b565b565b61045e6108b4565b610468828261099e565b5050565b61047d610477610711565b82610a20565b50565b6000600560009054906101000a900460ff16905090565b60008060008373ffffffffffffffffffffffffffffffffffffffff1673ffffffffffffffffffffffffffffffffffffffff168152602001908152602001600020549050919050565b6104e76108b4565b6104f16000610aa2565b565b610505826104ff610711565b8361072b565b61050f8282610a20565b5050565b61051b6108b4565b610523610b68565b565b6000600560019054906101000a900473ffffffffffffffffffffffffffffffffffffffff16905090565b60606004805461055e906113d8565b80601f016020809104026020016040519081016040528092919081815260200182805461058a906113d8565b80156105d75780601f106105ac576101008083540402835291602001916105d7565b820191906000526020600020905b8154815290600101906020018083116105ba57829003601f168201915b5050505050905090565b6000806105ec610711565b90506105f98185856107c0565b600191505092915050565b6000600160008473ffffffffffffffffffffffffffffffffffffffff1673ffffffffffffffffffffffffffffffffffffffff16815260200190815260200160002060008373ffffffffffffffffffffffffffffffffffffffff1673ffffffffffffffffffffffffffffffffffffffff16815260200190815260200160002054905092915050565b6106936108b4565b600073ffffffffffffffffffffffffffffffffffffffff168173ffffffffffffffffffffffffffffffffffffffff16036107055760006040517f1e4fbdf70000000000000000000000000000000000000000000000000000000081526004016106fc919061134e565b60405180910390fd5b61070e81610aa2565b50565b600033905090565b6107268383836001610bcb565b505050565b60006107378484610604565b90507fffffffffffffffffffffffffffffffffffffffffffffffffffffffffffffffff8110156107ba57818110156107aa578281836040517ffb8f41b20000000000000000000000000000000000000000000000000000000081526004016107a193929190611409565b60405180910390fd5b6107b984848484036000610bcb565b5b50505050565b600073ffffffffffffffffffffffffffffffffffffffff168373ffffffffffffffffffffffffffffffffffffffff16036108325760006040517f96c6fd1e000000000000000000000000000000000000000000000000000000008152600401610829919061134e565b60405180910390fd5b600073ffffffffffffffffffffffffffffffffffffffff168273ffffffffffffffffffffffffffffffffffffffff16036108a45760006040517fec442f0500000000000000000000000000000000000000000000000000000000815260040161089b919061134e565b60405180910390fd5b6108af838383610da2565b505050565b6108bc610711565b73ffffffffffffffffffffffffffffffffffffffff166108da610525565b73ffffffffffffffffffffffffffffffffffffffff1614610939576108fd610711565b6040517f118cdaa7000000000000000000000000000000000000000000000000000000008152600401610930919061134e565b60405180910390fd5b565b610943610db2565b6000600560006101000a81548160ff0219169083151502179055507f5db9ee0a495bf2e6ff9c91a7834c1ba4fdd244a5e8aa4e537bd38aeae4b073aa610987610711565b604051610994919061134e565b60405180910390a1565b600073ffffffffffffffffffffffffffffffffffffffff168273ffffffffffffffffffffffffffffffffffffffff1603610a105760006040517fec442f05000000000000000000000000000000000000000000000000000000008152600401610a07919061134e565b60405180910390fd5b610a1c60008383610da2565b5050565b600073ffffffffffffffffffffffffffffffffffffffff168273ffffffffffffffffffffffffffffffffffffffff1603610a925760006040517f96c6fd1e000000000000000000000000000000000000000000000000000000008152600401610a89919061134e565b60405180910390fd5b610a9e82600083610da2565b5050565b6000600560019054906101000a900473ffffffffffffffffffffffffffffffffffffffff16905081600560016101000a81548173ffffffffffffffffffffffffffffffffffffffff021916908373ffffffffffffffffffffffffffffffffffffffff1602179055508173ffffffffffffffffffffffffffffffffffffffff168173ffffffffffffffffffffffffffffffffffffffff167f8be0079c531659141344cd1fd0a4f28419497f9722a3daafe3b4186f6b6457e060405160405180910390a35050565b610b70610df2565b6001600560006101000a81548160ff0219169083151502179055507f62e78cea01bee320cd4e420270b5ea74000d11b0c9f74754ebdbfc544b05a258610bb4610711565b604051610bc1919061134e565b60405180910390a1565b600073ffffffffffffffffffffffffffffffffffffffff168473ffffffffffffffffffffffffffffffffffffffff1603610c3d5760006040517fe602df05000000000000000000000000000000000000000000000000000000008152600401610c34919061134e565b60405180910390fd5b600073ffffffffffffffffffffffffffffffffffffffff168373ffffffffffffffffffffffffffffffffffffffff1603610caf5760006040517f94280d62000000000000000000000000000000000000000000000000000000008152600401610ca6919061134e565b60405180910390fd5b81600160008673ffffffffffffffffffffffffffffffffffffffff1673ffffffffffffffffffffffffffffffffffffffff16815260200190815260200160002060008573ffffffffffffffffffffffffffffffffffffffff1673ffffffffffffffffffffffffffffffffffffffff168152602001908152602001600020819055508015610d9c578273ffffffffffffffffffffffffffffffffffffffff168473ffffffffffffffffffffffffffffffffffffffff167f8c5be1e5ebec7d5bd14f71427d1e84f3dd0314c0f7b2291e5b200ac8c7c3b92584604051610d939190611240565b60405180910390a35b50505050565b610dad838383610e33565b505050565b610dba610480565b610df0576040517f8dfc202b00000000000000000000000000000000000000000000000000000000815260040160405180910390fd5b565b610dfa610480565b15610e31576040517fd93c066500000000000000000000000000000000000000000000000000000000815260040160405180910390fd5b565b610e3b610df2565b610e46838383610e4b565b505050565b600073ffffffffffffffffffffffffffffffffffffffff168373ffffffffffffffffffffffffffffffffffffffff1603610e9d578060026000828254610e91919061146f565b92505081905550610f70565b60008060008573ffffffffffffffffffffffffffffffffffffffff1673ffffffffffffffffffffffffffffffffffffffff16815260200190815260200160002054905081811015610f29578381836040517fe450d38c000000000000000000000000000000000000000000000000000000008152600401610f2093929190611409565b60405180910390fd5b8181036000808673ffffffffffffffffffffffffffffffffffffffff1673ffffffffffffffffffffffffffffffffffffffff16815260200190815260200160002081905550505b600073ffffffffffffffffffffffffffffffffffffffff168273ffffffffffffffffffffffffffffffffffffffff1603610fb95780600260008282540392505081905550611006565b806000808473ffffffffffffffffffffffffffffffffffffffff1673ffffffffffffffffffffffffffffffffffffffff168152602001908152602001600020600082825401925050819055505b8173ffffffffffffffffffffffffffffffffffffffff168373ffffffffffffffffffffffffffffffffffffffff167fddf252ad1be2c89b69c2b068fc378daa952ba7f163c4a11628f55a4df523b3ef836040516110639190611240565b60405180910390a3505050565b600081519050919050565b600082825260208201905092915050565b60005b838110156110aa57808201518184015260208101905061108f565b60008484015250505050565b6000601f19601f8301169050919050565b60006110d282611070565b6110dc818561107b565b93506110ec81856020860161108c565b6110f5816110b6565b840191505092915050565b6000602082019050818103600083015261111a81846110c7565b905092915050565b600080fd5b600073ffffffffffffffffffffffffffffffffffffffff82169050919050565b600061115282611127565b9050919050565b61116281611147565b811461116d57600080fd5b50565b60008135905061117f81611159565b92915050565b6000819050919050565b61119881611185565b81146111a357600080fd5b50565b6000813590506111b58161118f565b92915050565b600080604083850312156111d2576111d1611122565b5b60006111e085828601611170565b92505060206111f1858286016111a6565b9150509250929050565b60008115159050919050565b611210816111fb565b82525050565b600060208201905061122b6000830184611207565b92915050565b61123a81611185565b82525050565b60006020820190506112556000830184611231565b92915050565b60008060006060848603121561127457611273611122565b5b600061128286828701611170565b935050602061129386828701611170565b92505060406112a4868287016111a6565b9150509250925092565b600060ff82169050919050565b6112c4816112ae565b82525050565b60006020820190506112df60008301846112bb565b92915050565b6000602082840312156112fb576112fa611122565b5b6000611309848285016111a6565b91505092915050565b60006020828403121561132857611327611122565b5b600061133684828501611170565b91505092915050565b61134881611147565b82525050565b6000602082019050611363600083018461133f565b92915050565b600080604083850312156113805761137f611122565b5b600061138e85828601611170565b925050602061139f85828601611170565b9150509250929050565b7f4e487b7100000000000000000000000000000000000000000000000000000000600052602260045260246000fd5b600060028204905060018216806113f057607f821691505b602082108103611403576114026113a9565b5b50919050565b600060608201905061141e600083018661133f565b61142b6020830185611231565b6114386040830184611231565b949350505050565b7f4e487b7100000000000000000000000000000000000000000000000000000000600052601160045260246000fd5b600061147a82611185565b915061148583611185565b925082820190508082111561149d5761149c611440565b5b9291505056fea2646970667358221220f01d256595d54176d32c57a5ae73ef652467c9c94f83df61f8eb54ca817b816364736f6c634300081c0033",
  "linkReferences": {},
  "deployedLinkReferences": {}
}